:10000000005000203909000061090000BD07000010
:1000100000000000000000000000000000000000E0
:100020000000000000000000000000006109000066
:1000300000000000000000006109000061090000EC
:100040006109000061090000610900006109000008
:1000500061090000610900006109000061090000F8
:1000600061090000610900006109000061090000E8
:1000700061090000610900006109000061090000D8
:1000800061090000610900006109000061090000C8
:1000900061090000610900006109000061090000B8
:1000A00061090000610900006109000061090000A8
:1000B0006109000061090000610900006109000098
:1000C00010B5064C2378002B07D1054B002B02D02E
:1000D000044800E000BF0123237010BDC8090020C0
:1000E00000000000B0800000084B10B5002B03D0CA
:1000F0000749084800E000BF07480368002B00D10B
:1001000010BD064B002BFBD09847F9E7000000001C
:10011000CC090020B0800000C409002000000000CD
:10012000164B002B00D1144B9D46402292029A1A86
:10013000924600218B460F461348144A121A00F0CB
:1001400047FD0F4B002B00D098470E4B002B00D0E3
:1001500098470020002104000D000D48002802D01F
:100160000C4802F0C5FA00F00FFD2000290000F055
:1001700055F800F0F9FCC0460000080000500020CF
:100180000000000000000000C8090020440A002010
:10019000F1260000613A000010B5042000F018F9C3
:1001A000102000F057F90021072000F065F9012028
:1001B00000F00EF9012000F04DF90F4C0F4800F04F
:1001C00055FA182000F0FAF8200000F009F907208D
:1001D00000F006F9802100224904200000F0B4F864
:1001E000A023FF21DB059A6C8A439A643322996C21
:1001F0000A439A6410BDC046103D805700A24A04CD
:1002000010B5044800F012FBE1210348490200F058
:100210004BFB10BD10000004000005403123F0B579
:1002200085B002AA13700133537001339370013308
:10023000D37001331371013353710133937101335F
:10024000D37193881788568801935920D388162133
:100250008822294C00936060616062606368002BB3
:10026000F9D00025FFF798FF6560FFF7C9FF234B22
:100270002348196800F0F6FC224800F055FD22489A
:1002800000F052FD214800F04FFD214800F04CFDE8
:10029000204800F049FD204800F046FD1F4800F0CE
:1002A00043FD1F4800F040FD1E4C1F4800F03CFD80
:1002B0001E4800F039FD21001D4800F0D3FC8023CA
:1002C00029005B051B4A280000F010FA1A4B019A1E
:1002D0005F605E605A60009A5A6000F017FA174A31
:1002E0000100A04200D0164A164800F0BBFC0720CF
:1002F00000F08EF8FEE7C046FC0000500800002029
:10030000527900006179000091790000C179000004
:10031000F2790000497A0000717A0000987A0000B2
:10032000BE7A00002BA10000E47A00000A7B0000E6
:10033000307B0000FFFF0000008001504879000082
:100340004D790000587B0000F0B587B002AC250065
:10035000174B9446C4CBC4C51B682B600023009385
:1003600020330193830ADBB2002B0ED06E46870543
:10037000FF0EBB4062460503AD0FAD00AE590D4DFB
:10038000761935689D432A43326003015B0F0CD018
:100390008200C001C00E8340920F9200A458064A0A
:1003A000A41822689A431143216007B0F0BDC046EB
:1003B000787B000018020050100200503821034AD8
:1003C00013698B43184310617047C0460002005008
:1003D000024A1368184310607047C046000200507C
:1003E0007FB501AA1100084B103370CB70C1830F89
:1003F0009B009A58054BD2181F2318401E3B834080
:1004000011680B4313607FBD787B0000040200502D
:100410007FB501AA1100084B103370CB70C11F21AA
:10042000830F08401E3981409B009B58034A9B184C
:100430001A688A431A607FBD787B0000040200506E
:100440008023034A5B02116A0B4313627047C04664
:1004500000020050064B0749CA680240904201D191
:1004600001207047013B002BF6D11800F9E7C04688
:1004700081F5200000020050F7B50425104C06005D
:10048000E3681020019323680F002B432360FFF7DC
:10049000E1FF07220F21236913432361A3698B43E3
:1004A0001F43A761236993431E43266100F05EFA50
:1004B000019BDB0602D42368AB432360F7BDC04633
:1004C00000020050F0B5594E89B004000D00FFF74E
:1004D000B7FF3368002C62D1012003433360FFF77C
:1004E000B9FF02230093524B05940393514B524A98
:1004F000EB18934267D9514B514AEB1893425AD8A3
:1005000001236D000193002301271C0002937F4209
:100510000099039800F07EFA4A4B4B4AC318934265
:1005200020D84300EA1A0492A4463A000224474F16
:100530004749DF198F420BD8049F9D4200D25F1BB1
:10054000974205D2002F40D0009AA44602923A006A
:1005500004990134091A04913E491B188C42E6D1D2
:1005600064461700009B01330093222BD0D1019BDE
:10057000059A9B031343A21E1343029A0420023AD6
:10058000520213433362FFF765FF019B0398591C26
:10059000029B594300F03EFA604309B0F0BD0427C6
:1005A0003B4333601020FFF755FF80231B03059367
:1005B0000097294B99E7294B294AEB18934207D812
:1005C000AD0003239EE700239CE7009B0293C9E74D
:1005D000002C27D1234B33620420FFF73BFF01237C
:1005E000A02107AA1370DB18537093700233D370E5
:1005F000336AC90200200B42CFD1190314D40C482E
:100600009903CAD41904890F525CDC059904E40DDE
:10061000C90E0234800802316043514300F0FAF9F8
:100620008000BAE7104BD6E70B48E9E7000200501C
:10063000001BB700FF1E0AFAFFE0F5057F0F05FD5E
:100640007FF0FA02FF95E7FFFEB9DB00001F0AFA10
:1006500000E1F5050202000000805101C08782FE22
:1006600040787D012E440000324C080070B51C4BD0
:100670001C4C0500E668984200D21D001A4B9D42B2
:1006800000D91D0004232268102013432360FFF7C4
:10069000E1FE07232269690013430F222361A36946
:1006A0009343A361E368DB0711D5102300201E40AC
:1006B000FFF708FF050001210220FFF7DDFE002EF5
:1006C00003D10422236893432360680870BD80200F
:1006D0000003FFF7F7FE1023E66805001E40EAE777
:1006E00040787D010002005000A24A0410B5064C7B
:1006F000A2600122134319430223084320602268A9
:100700001343236010BDC0460080015080210E4A73
:10071000C905136810009B0F9B078B4211D003D8AB
:10072000002B0BD000200BE0802109068B4205D066
:10073000C02109068B42F5D1D06801E0C06880B2C3
:100740007047D068C0B2FBE70080015010B50400CC
:10075000114800F0E9FA2168104800F083FA616856
:100760000F4800F07FFAA1680E4800F07BFAE168BC
:100770000D4800F077FA21690C4800F073FA6169BE
:100780000B4800F06FFAA1690A4800F06BFAE169C2
:10079000094800F067FAFEE7947B0000AA7B00009E
:1007A000B67B0000C27B0000CE7B0000DA7B00003D
:1007B000E67B0000F27B0000FE7B0000064B04207D
:1007C0007146084203D0EFF309807146BEE7EFF3AC
:1007D0000880BBE7FEE7C0464D070000802070B5EB
:1007E0000D250B4B8C180004A14201D1100070BDE7
:1007F0009E690642FCD100268E571E6001268E5748
:100800000A2E03D19E690642FCD11D600131EBE73F
:10081000000005408022044BD20198691042FCD1AF
:100820001B6801200B70704700000540064A030E4C
:100830009B1801220002000A8240196811431960C6
:10084000196891431960704708000050012307B5EB
:10085000A02101AA1370DB18537093700233D37078
:100860000E4BC9021B6A00200B4213D1190312D48C
:100870000B4899030ED4D905C90D023180084843AD
:100880001904890F525C9904C90E0231514300F0DA
:10089000C1F880000EBD0348EBE7C04600020050DF
:1008A000001BB70000805101F0B587B002AE3200E6
:1008B0001D4B05000F0013CB13C21B6813601B4AAE
:1008C000032354699269240E019200222A63EB608B
:1008D0001C40174AAB681340AB60012C02D1FFF7F4
:1008E000B5FF7060002F19D0019BA4001905090FF6
:1008F0000131305900F08EF80400780800193900F1
:1009000000F088F80B4B0238984209D9F80000191A
:10091000390000F07FF800090238686207B0F0BDC6
:10092000C0239B051843F8E70C7C00000002005030
:100930000FFFF0FFFFFF00000649074A074B9B1A15
:1009400003DD043BC858D050FBDC00F061F8FFF732
:10095000E7FB0000BC80000000000020C809002068
:10096000FEE7C046ABBE744698472047072337B51D
:10097000A0211E4D01AA2C69C9021C40063B137020
:100980000133537093700233D3702B6A00200B42F3
:1009900013D1190328D4164899030ED4D905C90DCB
:1009A0000231800848431904890F525C9904C90E2A
:1009B0000231514300F02EF880000E4B1860022CDB
:1009C00002D00D4BA400E0580F23A9691940013152
:1009D00000F020F8094B0A4918600A4BC01800F0D3
:1009E00019F8094B186037BD0848D5E700020050D8
:1009F000001BB700040000201C7C00000800002041
:100A000040420F0020A1070000000020008051019B
:100A100070470000002243088B4274D303098B42C5
:100A20005FD3030A8B4244D3030B8B4228D3030CBE
:100A30008B420DD3FF22090212BA030C8B4202D360
:100A40001212090265D0030B8B4219D300E0090A88
:100A5000C30B8B4201D3CB03C01A5241830B8B4291
:100A600001D38B03C01A5241430B8B4201D34B037A
:100A7000C01A5241030B8B4201D30B03C01A5241DF
:100A8000C30A8B4201D3CB02C01A5241830A8B4264
:100A900001D38B02C01A5241430A8B4201D34B024D
:100AA000C01A5241030A8B4201D30B02C01A5241B1
:100AB000CDD2C3098B4201D3CB01C01A5241830965
:100AC0008B4201D38B01C01A524143098B4201D39F
:100AD0004B01C01A524103098B4201D30B01C01ACA
:100AE0005241C3088B4201D3CB00C01A5241830844
:100AF0008B4201D38B00C01A524143088B4201D371
:100B00004B00C01A5241411A00D2014652411046D0
:100B10007047FFE701B5002000F006F802BDC046AF
:100B20000029F7D076E770477047C0461C210123A3
:100B30001B04984201D3000C10391B0A984201D3C0
:100B4000000A08391B09984201D30009043902A29E
:100B5000105C40187047C046040302020101010105
:100B6000000000000000000010B50021040001F0AA
:100B700037FD044B1868C36B002B00D0984720004A
:100B800006F0D4FE3C7C000070B50D4E0D4D0024E7
:100B9000AD1BAD1005D0A300F35801349847A54212
:100BA000F9D106F0C5FE084E084D0024AD1BAD106E
:100BB00005D0A300F35801349847A542F9D170BD80
:100BC000B8090020B8090020B8090020C009002099
:100BD000F0B5830743D0541E002A3FD0CEB20200A6
:100BE000032502E01A00013C38D3531C16702B4237
:100BF000F8D1032C2AD9FF220A40150215432A04F2
:100C000015430F2C14D927001A00103F3E09013656
:100C100036019E19156055609560D5601032964278
:100C2000F8D10F2297431037DB191440032C0DD94C
:100C30001A00271FBE080136B6009E1920C2B24214
:100C4000FCD1032297430437DB191440002C05D054
:100C5000C9B21C19197001339C42FBD1F0BD1400BC
:100C60000300C6E70FB400B5064983B004AB0868BB
:100C700004CB8168019300F093F803B008BC04B082
:100C80001847C0460C00002030B5040089B00800A9
:100C90000D0000F053F804AB214A019302230692A1
:100CA00001220293A36B05900130049507920390F3
:100CB000A568002B2FD06B6EDB0724D40C23EA5ED3
:100CC00091B28B051CD580239B01194205D113439A
:100CD000AB816A6E134B13406B66200001AA29009A
:100CE00003F006F8441EA04144420A206B6E044300
:100CF000DB0702D4AB899B0509D5200009B030BDC4
:100D0000A86D03F0AFF90C23EA5E91B2DBE7A86DA2
:100D100003F0AAF9F1E7200002F062FECBE7C0463B
:100D2000407C0000FFDFFFFF10B5034B0100186897
:100D3000FFF7AAFF10BDC0460C00002010B58307C6
:100D400025D00378002B24D00300032102E01A7879
:100D5000002A1AD001330B42F9D119680E4A0F4C00
:100D60008A188A43224206D1043319680A4A8A182B
:100D70008A432242F8D01A001B78002B03D001329C
:100D800011780029FBD1101A10BD181AFCE70300D6
:100D9000E3E70020F8E7C046FFFEFEFE808080808B
:100DA000F0B5DE464E4645465746E0B5C3B08946E7
:100DB00014001D000F930600069003F041F903682C
:100DC00018001893FFF7BAFF1790002E04D0B36BEA
:100DD0000793002B00D1A7E04B465B6EDB0778D46E
:100DE0004B460C21595E8BB29A056ED5802292013A
:100DF000134209D10A434B4649469A81496ECC4B6E
:100E00000B4049464B6693B21A0767D54A461269AA
:100E1000002A63D01A221A400A2A00D188E032AB95
:100E200025930023CB4625AFBB607B6007941493CA
:100E30001593169332AE19931A930A93079C23784D
:100E4000002B01D100F09EFD252B03D100F09AFD6F
:100E5000252B03D001342378002BF9D1079BE51A09
:100E600010D0079B75603360BB685B19BB607B6803
:100E700001337B60072B4CDC08360A9B9C46AC4454
:100E800063460A932378002B01D100F099FC631C80
:100E90000793002316AAD3770122524292460022DA
:100EA0000B922032914620326378002100200024EA
:100EB0009446079A013207921A00203A582A00D91C
:100EC000E7E29C4D9200AA5897464B46986D03F076
:100ED000C9F84B460C21595E8BB287E74946069804
:100EE00001F008FB4B4600283AD05B6EDB0705D4C7
:100EF0004B469B899B0501D400F0CFFF01235B4249
:100F00000A930A9843B03CBC90469946A246AB4629
:100F1000F0BD3A005946069804F05EFA002801D068
:100F200000F0CEFC32AEA8E7069802F059FD53E778
:100F30004A460E21525E002A00DA70E74A46526E97
:100F4000D20705D49B0503D44B46986D03F08CF86B
:100F50002B0022004946069801F088FA0A90D0E753
:100F60009B8957E70B9B0F925B420B9304231C4317
:100F7000079B1B789DE7079B01211B782B2098E797
:100F8000079B5A1C1B7890462A2B01D101F027FAA7
:100F90001A000025303AAA46092A01D901F06DF954
:100FA00025004346544688468246A1000C1918780D
:100FB0006400A4180200591C303A0B00092AF4D925
:100FC0000791030041465046A2462C0074E7129355
:100FD000002901D001F027FA574B1993A30601D538
:100FE00000F09AFEE30601D500F09AFD630601D4F5
:100FF00000F096FD0F9B1A880C92002204330D928C
:101000000F93E30701D400F076FD0C990D9A0B00C5
:1010100013431A000223002A08D030201EA90870AA
:1010200048256846401900781C43487000218846CE
:1010300016A8C1775146013100D1E6E08021200099
:1010400088430990002A00D0E3E05246002A01D0EC
:1010500000F038FC002B01D000F00CFD012032AB79
:1010600020400E90119308D02723302128AAD15474
:1010700016AA944648336344119353460E9A089334
:10108000924500DA0892002313934346002B02D0C6
:10109000089B013308930223099A1A40914602D013
:1010A000089B023308938423099A1A40109200D0B7
:1010B00007E20B9B089A9C1A002C00DC01E21F49F6
:1010C000BA687B688846102C21DD310010255E4609
:1010D00003E0103C0831102C17DD4046103201337C
:1010E00008604D60BA607B60072BF2DD3A0031008A
:1010F000069804F071F9002801D000F0CFFC103CF4
:10110000BA687B6832A9102CE7DCB3460E00414672
:1011100074600133A4183160BC607B60072B01DD73
:1011200000F0AEFC16ABDB7F08369846CAE1C0463D
:10113000FFDFFFFF447C0000CC7D0000EC7D000061
:101140000022079D303BA8460B921A0008942C0001
:1011500055468246404688461100002293009A1860
:10116000037852008A181900013430392000092907
:10117000F4D907945046089C0B924146AA469BE638
:101180000F9A12931368202108936B465B181B7803
:1011900028AD2B70002316A9CB77130004330F93CF
:1011A000002309949846013308930E930023119568
:1011B0009A4613936FE71293002901D001F03FF98B
:1011C0000F9AA30601D500F05AFDE30601D500F001
:1011D000ABFC630601D400F0A7FC0021535E0C9326
:1011E0000432DB170D930F92002B01DA00F0B2FDF1
:1011F0000C990D9A0800514616ABDB7F10439846B8
:1012000002000123013100D018E7002A00D15AE37F
:101210000994012B01D100F006FC022B00D080E3E1
:10122000199C0F20A146B44632AB19000C9A0D9BB5
:1012300004004D4614402C5D1E07150901392E434C
:101240000C701C092300340032001C43F0D10C92B6
:101250000D9332AB5B1A119166460E930DE7634610
:101260001C43079B1B7824E6079B1B786C2B01D142
:1012700000F08CFE102214431BE6002901D001F07F
:10128000E7F8A30601D500F076FEE30600D510E1ED
:10129000630600D40DE169460F9B098D1A6804337B
:1012A000089211800F93C9E50F9930220B680C93B7
:1012B00000230D9302331C431EAB1A7048325A7040
:1012C0000B0004330F93C14B129219930C9A022313
:1012D000ACE64B461C43079B1B78EAE512930F9B39
:1012E00016A91D1D1B681A0011930023CB77002A35
:1012F00001D100F001FF5346013301D100F064FE3B
:1013000052460021119803F0DDF9002801D100F0C8
:1013100078FF119BC31A1A000E93DB43DB171A40A8
:1013200016ABDB7F0892984600230F9509949A46E6
:101330001393AAE608231C43079B1B78B9E5129375
:1013400010231C43A30601D500F0A7FCE30600D53B
:10135000EEE3630600D4EBE30F9B1A880C920022A5
:1013600004330D920F930C9A00235FE6129310231F
:101370001C43A30601D500F0BAFCE30600D5DAE36E
:10138000630600D4D7E30F9B1A880C920022043323
:101390000D920F930C9A012348E61293002901D075
:1013A00001F049F88A4B199318E601231C43079B67
:1013B0001B787EE580231C43079B1B7879E5079B00
:1013C0001B78002800D074E50121203071E51293CC
:1013D000002901D001F02BF807220F9B073393431C
:1013E000013294469C4462460F921A6815925B68DB
:1013F00001221693169B159D5B005B08984652428E
:10140000744B2800414606F089F9002801D000F00D
:10141000B4FC01226F4B52422800414604F0A6FB67
:10142000002801D000F0A9FC00220023159816998D
:1014300004F092FB002801D000F055FD16ABDB7FD5
:101440009846129B472B01DD00F0B4FD624B1193CF
:1014500080239C430994032308930E9300239A4608
:10146000139312E60F9B1A1D1B680B93002B00DAD7
:1014700078E5079B0F921B781BE51293002901D09A
:1014800000F0C6FF10231C439AE6129371E71293F3
:1014900058E71293002901D000F0C1FF129B002BE6
:1014A00000D18DE128AD2B70002316AAD3770994C3
:1014B00078E60F9A0A9913681960130004330F93A2
:1014C000BCE4BC684346002B0FD016AA1F239446E9
:1014D00063443360012373607B6801340133BC6073
:1014E0007B60072B00DD03E208364B46002B0CD057
:1014F0001EAB3360022373607B6802340133BC602F
:101500007B60072B00DDFDE10836109B802B00D1AE
:1015100073E153460E9A9D1A002D32DD2F4A7B68E7
:101520009146102D22DD1022924622005C4603E0F7
:10153000103D0836102D17DD4946316051461032F6
:1015400001337160BA607B60072BF1DD3A00210046
:10155000069803F041FF002800D08AE1103DBA68E8
:101560007B6832AE102DE7DCA34614004A466419AE
:10157000013332607560BC607B60072B00DDADE13C
:101580000836099BDB0500D5BEE0119B33600E9B3E
:101590009C4673607B6864440133BC607B60072BAE
:1015A00000DDA6E00836099B5B074AD50B9B089A2D
:1015B0009D1A002D45DD0A4A7B689046102D2FDDCF
:1015C0001022914622005C4610E0C046CC7D00000F
:1015D000B87D0000FFFFEF7FA87D0000FC7D0000CC
:1015E000EC7D0000103D0836102D17DDD14910327A
:1015F0003160494601337160BA607B60072BF1DDD1
:101600003A002100069803F0E7FE002800D030E100
:10161000103DBA687B6832AE102DE7DCA34614009B
:1016200042466419013324C6BC607B60072B08DD89
:101630003A005946069803F0CFFE002800D03FE15B
:10164000BC680B9B08998B4200DA0B000A9A9446FF
:101650009C4463460A93002C00D029E1002332AE5B
:101660007B60FFF7EBFB149B012B00DC03E1119B7C
:1016700001343360012373607B68BC6001337B609D
:10168000072B00DDEFE20836189A01333260179A13
:101690009846944664447260BC607B60072B00DD12
:1016A00018E30836002200231598169904F04EFA24
:1016B000002800D0F4E1119D149B0135013B3560F9
:1016C0007360E41801239C46E0444346BC607B60A1
:1016D000072B00DDE0E0083621AB33601A9B9C4607
:1016E0007360434664440133BC607B60072B00DCBD
:1016F00058E73A005946069803F06EFE002800D0DD
:10170000DEE0BC6832AE4EE7129B652BABDD0022FB
:1017100000231598169904F019FA002800D134E135
:10172000854B01343360012373607B68BC600133F7
:101730007B60072B00DDDCE308361F9B149A934285
:1017400003DB099BDB0700D4B7E3189BBA6833605F
:10175000179B9C4673607B68624401331400BA6037
:101760007B60072B01DD00F019FC0836149B5D1E21
:10177000002D00DC17E7714A7B689146102D00DCD4
:10178000C3E11022904622004C46D94604E00836B8
:10179000103D102D00DC7CE34146103201333460F3
:1017A0007160BA607B60072BF1DD3A00494606980C
:1017B00003F012FE00280BD1BA687B6832AEE7E76F
:1017C000BB68D946002B01D000F04CFD00237B60A4
:1017D0004B465B6EDB070DD44B469B899A0505D5BE
:1017E0005B0601D4FFF78DFBFFF788FB4B46986D36
:1017F00002F03AFC4B469B89F2E70B9B089A9D1A34
:10180000002D00DC85E64D4A7B689146102D24DDD5
:101810001022210090465C4632004E4603E0103D07
:101820000832102D15DD404610310133166050602E
:10183000B9607B60072BF2DD3A002100069803F0C7
:10184000CBFD002815D1103DB9687B6832AA102D58
:10185000E9DCA346B1460C0016004A466419013380
:1018600032607560BC607B60072B00DD63E2083688
:101870004FE6A146ACE70123099A134200D0F6E6F1
:1018800073607B68119A013301343260BC60984602
:101890007B60072B00DC1EE73A005946069803F0F0
:1018A0009BFD00280CD17B68BC68984632AE13E7DC
:1018B0003A005946069803F08FFD002800D1CDE686
:1018C000D94685E7099C012B00D148E1022B23D1A1
:1018D0000994002300240C930D94A1E43A00594686
:1018E000069803F079FD0028EAD1BC6832AE48E6DC
:1018F0003A005946069803F06FFD0028E0D1BC6815
:1019000032AEF2E53A005946069803F065FD00282C
:10191000D6D1BC6832AEF8E50994002300240C93BC
:101920000D940C980D99534632AA91460893B246ED
:1019300007E0C046EC7D0000E87D0000FC7D000073
:10194000A1464A0794464B4665465C1EC6080723D7
:10195000CA08354311002A000340303323702800A1
:101960000A43EDD10C900D91089956468A46099983
:101970004A461194C90700D5E0E032AB1B1B0E9319
:10198000FFF77BFB079CFFF77DFA1F98002800DC20
:10199000B9E2139A1499130090468B4200DD8846F1
:1019A0004346002B0CDD119B444433604346736077
:1019B0007B68BC6001337B60072B00DD89E3083660
:1019C0004346DB434246DB171340139AD31A98462B
:1019D000002B00DCEBE0102B01DC00F0D2FCDC4A39
:1019E0007B68914610224D46924622004446D846D6
:1019F00004E00836103C102C00DCBFE051461032E9
:101A0000013335607160BA607B60072BF1DD3A000D
:101A10004146069803F0E0FC002800D0B6E3BA681F
:101A20007B6832AEE6E70D9B002B00D192E00C9C68
:101A30000D9D32ABB1461E00200029000A22002372
:101A400004F0B2F8013E3032327000232000290049
:101A50000A2204F0A9F8030004000D000B43EBD1A7
:101A6000320032AB9B1A11960C940D954E460E9394
:101A7000FFF703FB00230E9332AB1193FFF7FDFA40
:101A80003A005946069803F0A7FC002800D017E753
:101A900016ABDB7FBC68984632AE13E5B14697E6DD
:101AA000149B5D1E002D00DC16E6A94B9946102DF7
:101AB00000DC0AE1102322009A465C46434604E01B
:101AC0000836103D102D00DCFCE0494631605146DF
:101AD000103201337160BA607B60072BF0DD3A0091
:101AE0002100069803F078FC002800D0C1E6BA680F
:101AF0007B6832AEE5E70C990D9A0800104302238B
:101B00000200FFF793FAA34614004A466419013312
:101B100032607560BC607B60072B00DC42E5E8E565
:101B20000F9B1A68FFF768FA13680893FFF757FBD3
:101B30000F9B1A6812E40F9B1A6826E4302B00D121
:101B40003CE23023023A137032AB9B1A0E9311928F
:101B5000FFF793FA0C9B092B00D968E7099C272211
:101B60000C9B28A930338B54012316AA94460E935C
:101B70006E33634409941193FFF77FFAC346A94675
:101B8000A04614004A463260424644440133726023
:101B9000BC607B60072B00DC8DE13A00594606985B
:101BA00003F01AFC002800D08AE6BC6832AE1F9B06
:101BB000149A934200DB79E1189A3260179A94469E
:101BC00072607A6864440132BC607A60072A00DD82
:101BD00076E10836149A1399D31A521A90469A420B
:101BE00000DD98464246002A0FDD1399119A8C4673
:101BF00062443260424672607A6844440132BC609A
:101C00007A60072A00DD89E208364246D543ED179F
:101C100015405D1B002D00DCC5E44D4A7B689146F4
:101C2000102D00DC71E71022904622005C4604E093
:101C30000836103D102D00DC65E74946316041460D
:101C4000103201337160BA607B60072BF0DD3A001F
:101C50002100069803F0C0FB002800D009E6BA680E
:101C60007B6832AEE5E73A005946069803F0B4FBCC
:101C7000002800D024E6BC687B6832AE04E5072368
:101C800007329A4301339C46944463460F9353684A
:101C900012680D930C92FFF7A7FA07220F9B0733E8
:101CA0009343013294469C4462460F921A685B68E3
:101CB00011001A00080010430C910D92002302003D
:101CC000FFF7B4F9A346984614004B46756033609D
:101CD0006419F7E43A005946069803F07DFB0028A2
:101CE00000D0EDE57B68BC68984632AEDAE40722A6
:101CF0000F9B07339343013294469C4462460F92F4
:101D00001A685B6811001A00080010430C910D92CC
:101D100001230200FFF78AF907220F9B0733934341
:101D2000013294469C4462460F921A685B680C929A
:101D30000D93FFF766F93A005946069803F04CFBFD
:101D4000002800D0BCE5BC6832AEFFF7E2FBC0461D
:101D5000FC7D00000C980D99002342428B4111003C
:101D60001A002D2316A8C377080010430C910D927A
:101D7000984602002C3BFFF75DF91599169D0A0065
:101D800008002B00290005F0C9FC002800D0C6E29D
:101D90005346013300D19FE02023129A9A430E92BA
:101DA000472A00D1A1E180235B0023430993169BBE
:101DB000002B00DAEDE1159A089300239146109369
:101DC000129B662B00D1B8E1462B00D137E20E9A68
:101DD0000698453A13005942594120AB0D00039330
:101DE0001FAB0293022323AA55441B920492009333
:101DF0000195089B4A4600F02DFD129B1190672B20
:101E000000D00BE2119B9846A844E30700D477E288
:101E1000002300224846089903F098FE4346002814
:101E20000AD1239B434507D2302140465A1C2392B6
:101E30001970239B9842F9D8119A9B1A14930E9B00
:101E4000472B00D1D0E0129B652B00DCDDE2129B1A
:101E5000662B00D1C6E11F9B1393149B139A1900A4
:101E6000914200DDA0E1E30700D542E2D343DB1756
:101E700011001A40672308920E911293109B002BB9
:101E800000D0A9E016ABDB7F984600239A46FFF707
:101E9000FCF8CB46A146140037E64B46986D02F09D
:101EA000E3F801235B420A93FFF72BF8099AD20764
:101EB00000D48FE680E6083679E6BC68FFF773FB4E
:101EC0003A005946069803F087FA002800D0F7E454
:101ED0001F9BBC6832AE7DE62023129A9A431A3BC0
:101EE0000E929A465FE72D2316AAD3779846FFF7FE
:101EF000A8FA3A005946069803F06EFA002800D076
:101F0000DEE432AE19E4E34B013433600123736045
:101F10007B68BC6001337B60072B00DD55E1083630
:101F2000002807D1149B002B04D1099BDB0701D4A7
:101F3000FFF739FB189B3360179B191973607B6897
:101F4000B96001337B60072B00DDC4E13200083249
:101F5000002800DA95E111980133106014987B6035
:101F600044185060BC60072B01DDFFF7C2FB08324C
:101F70001600FFF718FB0F990A9A0B681A60D21720
:101F80005A600B0004330F93FEF758FF4B46079A35
:101F90001C43013213780792FEF78BFF3A00594633
:101FA000069803F019FA002800D089E4BC6832AE24
:101FB000FFF7DCFBB84B1193FFF74AFA119A32ABEB
:101FC0009B1A0E93FFF759F81198FEF7B7FE02001F
:101FD0000E900300FFF7A1F92D2316AAD377984698
:101FE00000239A46FFF754F81F9B1393DA1C02DB79
:101FF0009A4500DB31E7129B023B12932C22139B84
:1020000048215D1E16AB9B186A46521812781F9520
:102010001A70002D00DACBE12D212B2316AA5218BD
:102020001370092D00DC6DE116AA3B23944663442E
:102030009A46B146A046564600E0260028000A21EE
:1020400003F070FD741E3031217028000A2103F066
:1020500083FC05000928F0DC23004446B0464E46C8
:10206000994603003033D8B24346023B18709A4574
:1020700000D8E8E142461B9B4546991A01230731E7
:102080005B4201E0E85C013321AAD218D0708B4298
:10209000F8D116A98C462E224B4662449446FB1A70
:1020A000634421AA14999B1A9C460A0062441A931D
:1020B0000E92012900DC70E1179A0E9B944663444E
:1020C0001A000E93DB43DB171A4000230892139388
:1020D000D4E63A005946069803F07EF9002801D06C
:1020E000FFF7EEFBBC6832AE6AE45346002B00D02B
:1020F00059E601339A4656E653460893062B01D912
:1021000006230893089B0F950E93002398469A4642
:102110001393624B09941193FEF7BDFF3A005946A1
:10212000069803F059F9002801D0FFF7C9FB149B6A
:102130001F9ABC689B1A32AE67E523AB1B930493CE
:1021400020AB03931FAB02935346019303234A46EC
:1021500000930698089B00F07DFB030053449846CB
:1021600055461190119B1B78302B02D01F9B984431
:102170004EE6002200234846089903F0E7FC0028B9
:10218000F4D101235B1B1F93984441E6C146FFF73E
:102190001FFB802212069446159B9946169B6344AA
:1021A00008932D2310930BE6179A149B9446139AC9
:1021B00063440E93002A00DCE8E01A00DB43DB17DF
:1021C0001A4067230892129358E63A005946069837
:1021D00003F002F9002801D0FFF772FB1F98BC68DA
:1021E00032AE9DE61F9B1393002B00DCECE05246C1
:1021F000002A00D0A0E0E20700D59DE008930E93EE
:102200003CE616ABDB7F0F959846534608930E933A
:10221000002309949A461393FEF737FF119B9846C3
:10222000129BA844472B00D0F2E5E30700D4E4E07A
:10223000119B9846129BA844462B93D0E8E523AB0C
:102240001B93049320AB03931FAB0293534601935C
:1022500003234A4600930698089B00F0FBFA554674
:102260001190E5E73A005946069803F0B5F80028C2
:1022700001D1FFF7ABFAFFF7ABFA42460792FEF740
:102280001BFE4442103000DBC6E005481026050066
:102290000CE0C046E87D0000AC7D0000E07D000061
:1022A000FC7D00000832103C102C51DD1031013350
:1022B00015605660B9607B60072BF3DD3A00594624
:1022C000069803F089F8002801D0FFF7F9FAB968F9
:1022D0007B6832AAE7E73A005946069803F07CF893
:1022E000002801D0FFF7ECFA1F98B9687B6832AA82
:1022F0002EE6179A139B944663441A000E935DE7EB
:10230000239B99E52E21302316AA521813702B0017
:1023100016AA013130335218137022ABC1E6129B5A
:10232000472B4EDC4E4B119380239C4316ABDB7F37
:1023300009949846FFF78FF8179A139B94466344C5
:1023400053441A000E93DB43DB171A40089295E5BD
:10235000A94648460919013310605460B960083233
:102360007B60072B00DCF6E53A005946069803F03F
:1023700033F8002801D0FFF7A3FAB9687B6832AAC6
:10238000E9E5384A7B689146FFF7FCFB0E9B139A00
:10239000981A431C1A000E9310E70123234013934D
:1023A00000D089E60E9AD343DB171A40089265E500
:1023B0000123139A1B399D1A16AA2C335218137035
:1023C0002FE6294B1193AFE75346002B01D1E307CA
:1023D00003D5179B581C0300B2E701230EE70F9BA0
:1023E0001D1D1B68A8469A46002B35DB4546079BFA
:1023F0000F955B780792FEF75CFD239B119A9B1A61
:1024000014930E9B472B00D1EEE51F9B1393F5E52C
:1024100016ABD877FFF736F81248814699E716AB26
:10242000D877FFF73BF816ABD877FEF7D5FD16AB9C
:10243000D877FEF7D1FF16ABD877FEF7B3FF16AB10
:10244000D877FEF7BDFE16AA2E239446634428E6ED
:1024500016ABD877FEF715FF01235B429A46C5E716
:10246000B07D0000FC7D0000B47D0000F0B51500DB
:1024700002221E4C1F008B89A54493436A46938118
:102480004B6E06001993CB8916A8D381CB690C003B
:1024900007934B6A09931AAB009304938023DB00E4
:1024A000029305930023069301F0D8FD2A003B0018
:1024B00069463000FEF774FC051E05DB69463000F6
:1024C00001F034FA00280ED16B469B895B0603D5D8
:1024D0004022A3891343A381169801F0C1FD28006F
:1024E000034B9D44F0BD01256D42EDE794FBFFFFDA
:1024F0006C040000334B70B5050018680C00002810
:1025000002D0836B002B3CD00C23E25E93B2190700
:102510000DD52169002915D0DA0721D50023A36044
:10252000636900205B42A361002921D070BDD906F8
:102530003FD55B0728D4216908231343A3819BB2AD
:102540000029E9D1A0228020920080001A40824216
:10255000E2D02100280001F0B9FDA3892169DBE761
:1025600000229B0700D46269A26000200029DDD10F
:102570000C22A35E1A06D9D540221343A381013849
:10258000D4E701F02DFABFE7216B00290AD0230020
:102590004033994204D0280001F0CCFA0C23E25ECB
:1025A0000023236324239A4300232169636021606D
:1025B000C2E709232B60402301201A43A281404235
:1025C000B4E7C0460C000020034B10B5002B02D02E
:1025D000024800F08DF810BD00000000613A0000D4
:1025E000F0B5DE4657464E464546E0B53D4B85B014
:1025F0001B680190180002930F0001F033FD3A4B65
:102600001B6802934933FF330393A422029B5200B9
:102610009E58002E4ED0039B9946C4235B009846DB
:1026200004339A467468B044A5007519B244013C5D
:1026300008D52DE06B1DFF331B689F4204D0043D7D
:10264000013C25D3002FF5D173686A68013BA34292
:102650003DD000236B60002AF1D0736841469B4651
:102660000123A340096819422FD051460968194235
:102670002FD12B00843319680198904773685B450C
:10268000C3D14B461B68B342BFD1043D013CD9D2F4
:10269000164B002B0ED07368002B1FD13368002B14
:1026A00008D04A463000136000E000BF4B461E6869
:1026B000002EB2D10B4B186801F0D6FC05B03CBC23
:1026C00090469946A246AB46F0BD9047D6E7746067
:1026D000C1E72B00843318689047CFE7B1463668CE
:1026E000E6E7C046380400203C7C00000000000003
:1026F00010B5010000230022002002F08BFE10BD67
:10270000F0B545468046DE4657464E464246E0B561
:102710000C69126985B00B0002910020944200DD23
:1027200090E014229446634499464A46013CA30033
:10273000D6181422424493469B4433681500591C12
:102740005B4618680192FEF765F9031E009042D0BF
:10275000290000274D460020B146A2463E00040055
:102760009C462F0008000395634604CF15042D0CEA
:102770005D43120C5A43AD192B0CD21803682D047B
:102780001904090C0919160C2D0C1204491B120C02
:102790001B0C9B1A0A149B1809041C14090C1B041B
:1027A000194302C0B945DFD2039B4E4699465B46AA
:1027B0001B685446002B0ED15B46019A043B9A429B
:1027C00004D306E0043B013C9A4202D21968002976
:1027D000F8D043461C610299404602F089FA00286D
:1027E0002FDB4F460020009B019D013300932B6897
:1027F00002CF1A04120C10180A04120C821A090CC7
:102800001B0C5B1A11145B1812041814120C1B0415
:10281000134308C5BE42EAD20199A3008C46634423
:102820001A68002A0DD1043B0A00994204D306E03D
:10283000043B013C9A4202D219680029F8D0434671
:102840001C61009805B03CBC90469946A246AB4638
:10285000F0BDC046F0B557464E464546DE46E0B5AB
:10286000016C99B082461D0016001F00002909D096
:102870000123426C93404A608B6002F02DF80023E4
:1028800052461364B846002F37DB0023259A1360A5
:102890004246D64B1A409A4218D0002200233000FC
:1028A000390003F053F900282FD00123249A136034
:1028B000269B002B00D12AE2CD481860013819B0C0
:1028C0003CBC90469946A246AB46F0BDC94B249A03
:1028D0001360002E0BD14346180308D1269BC6482F
:1028E000002BECD003000833269A1360E7E7269B01
:1028F000C248002BE3D0C31CF6E70123259A6800E9
:102900001360430898461F00C2E716AB019317AB4C
:10291000009332003B00504602F0A0FA4346834643
:102920001A0D00D1D6E13B03B54C1B0B1C43B54B34
:1029300030009846169B21009946002390440F933F
:102940000022B14B04F0D4FBB04AB14B04F050F973
:10295000B04AB14B03F008FA040040460D0004F001
:1029600031FFAE4AAE4B04F043F902000B002000E9
:10297000290003F0F9F904000D0004F0EFFE002235
:10298000039000232000290003F0E6F8002800D07F
:10299000B1E20123039C0C93162C10D8A149E3004B
:1029A000C9183200086849683B0003F0E9F80028BC
:1029B00000D11DE32300013B039300230C934B46FE
:1029C00042469A1A002306931300013B049300D554
:1029D000A1E2039B002B00DA84E29C460D930023C6
:1029E000049A9946110061440491229B092B00D955
:1029F0008FE10124052B02DD0024043B2293229B5E
:102A0000032B01D100F0CEFC01DC00F092FC229BF4
:102A1000042B01D100F040FC01230B93229B052BDA
:102A200001D000F08BFC239A039B944663440E93E1
:102A3000013307931D1E01DC00F049FD079B9846FA
:102A40000023524600215364172D0AD90122043372
:102A50005B0018001430110001328542F8D2534651
:102A60005964504601F010FF5346186443460A90DB
:102A70000E2B00D961E1002C00D15EE11096119778
:102A8000039E002E01DC00F025FD32000F21654B76
:102A90000A40D2009B1836111C685D68F30601D409
:102AA00000F0CAFC604B0E401A6A5B6A10981199DC
:102AB00003F06AFC0323984608900991002E11D078
:102AC000594F0123334209D09C463A687B68200065
:102AD0002900E04404F08CF804000D00761008375B
:102AE000002EEED12200089809992B0003F04CFC2F
:102AF00006000F000C9B002B09D00022404B300039
:102B0000390003F029F8002801D000F0C2FD40464A
:102B100004F058FE32003B0004F06AF80022434BF8
:102B200003F022F9424A0B0094466344089009914D
:102B30000993079B002B01D100F050FC039B1393DA
:102B4000079B12930B9B002B01D100F01DFD129BE4
:102B500000205A1E334BD2009B181A685B68354917
:102B600003F012FC089A099B04F0C2FA089009913C
:102B70003900300004F0F2FD040004F023FE0200EE
:102B80000B003000390004F0B3FA05000E000A9A79
:102B90003034511CE7B2149117703300089809992A
:102BA0002A0002F0EDFF002801D000F0FEFD2A000F
:102BB00033000020124904F09BFA02000B00089831
:102BC000099902F0DDFF002801D000F0E7FD129B1B
:102BD000012B01D100F078FC0A9A129B94466344C1
:102BE00098464B461293149B994638E00000F07FBC
:102BF000E97D00000F2700000C7E0000187E000019
:102C00000000F03F01FCFFFF0000F83F61436F63ED
:102C1000A787D23FB3C8608B288AC63FFB799F50F5
:102C20001344D33F487E0000207E000000001C407B
:102C30000000C0FC0000E03F2A0033000020B9493A
:102C400004F056FA089A099B02F086FF002801D08A
:102C500000F074FDA146444501D100F033FC089812
:102C600009990022B04B03F0C3FF0022AE4B08903D
:102C700009912800310003F0BBFF0D00040004F0AF
:102C80006DFD070004F09EFD02000B0020002900EE
:102C900004F02EFA4B463037FFB25C1C1F70089AC6
:102CA000099B05000E0002F057FF0028C4D0139BBB
:102CB00003935946504601F00FFE00232370039BF7
:102CC000249A01331360269B002B00D1A8E31C60DB
:102CD0000A98F4E5169B9946179B4B441C00934BAE
:102CE000E318202B00DC7EE13100914A4046A21817
:102CF000D1400A004021CB1A9840104304F0A4FDB3
:102D0000631E984601238B4D0F93491918E68A4894
:102D1000D5E50023524600215364504601F0B4FD2E
:102D20005346186401235B4207930E93023300223B
:102D30000B9300230A9023922293179B002B00DA17
:102D4000ABE0039A0E2A00DDA7E07C4BD2009B1873
:102D50005C681B6804930594239B002B00DAA7E2B0
:102D6000049C059D300022002B00390003F00CFB71
:102D700004F0F4FC804604F025FD22002B0003F053
:102D800037FF02000B003000390004F0B1F9434670
:102D90000A9A30331370079B06000F00541C012B56
:102DA0004ED00022604B03F023FF002200230600D8
:102DB0000F0002F0CBFE002800D07AE70A9B079AAA
:102DC0009D1C9C465B46069353466244AA46049C5F
:102DD000059D914607930FE00022534B03F008FF37
:102DE00001239C460022002306000F00E24402F06B
:102DF000ADFE002800D0D9E222002B0030003900BF
:102E000003F0C2FA04F0AAFC804604F0DBFC2200C6
:102E10002B0003F0EDFE02000B003000390004F03F
:102E200067F953464246013B303206000F00D34655
:102E30001A70D145D0D1069B54469B46079B9A46B3
:102E400032003B003000390002F08EFF06000F0018
:102E500002000B000498059902F07EFE00280CD1B8
:102E60000498059932003B0002F070FE002800D162
:102E70001FE74346DB0700D41BE7651E2F780A9B3C
:102E800006E09D4200D151E3023C27782C00013D31
:102E9000392FF6D001372F700BE70B9A002A4FD04D
:102EA000229A012A00DC2CE2079B5C1E4B46A145BE
:102EB00000DAB8E21C1B079B002B00DAD4E3069B68
:102EC0000893079B069A012194469C446246069209
:102ED000049A504694469C446346049301F094FD42
:102EE000804632E0069A039BD21A5B429946002341
:102EF00006920D9379E5039804F064FC0B00020040
:102F00002900200002F022FE020050425041039BA3
:102F10001B1A03933DE501239B1A06930023049398
:102F200057E5C0460000F03F000024403204000096
:102F300012040000000010FEE87D0000487E000042
:102F4000069B4C4608930023984608990B1E0EDDFD
:102F5000049A002A0BDD934200DD87E1069AD21A1B
:102F60000692089AD21A0892049AD31A04934B46EE
:102F7000002B1AD00B9B002B00D1BBE1002C10DDE5
:102F800041462200504601F0F3FD5A4601008046BA
:102F9000504601F043FD05005946504601F09CFCA7
:102FA000AB464B461A1B00D0A5E10121504601F06B
:102FB0002BFD0D9B8146002B1DDD1A0001005046A4
:102FC00001F0D6FD229B8146012B00DC50E100245C
:102FD0004B461B6903339B004B44586801F0CCFC03
:102FE00020231B1A10E020223000D31A984085E6D7
:102FF00000230C93E3E4229B0024012B00DC8BE1F3
:103000000D9A0123002AE3D104991F208C466344C2
:10301000184000D1AEE020231B1A042B00DCCCE3C7
:103020001C23181A069B9C46844463460693089BFF
:103030009C46844463468C468444089363460493C8
:10304000069B002B05DD59461A00504601F0F0FDA5
:103050008346049B002B05DD49461A00504601F0CB
:10306000E7FD81460C9B002B00D094E0079B002BD2
:1030700000DC75E10B9B002B00D1A6E0089B002B28
:1030800005DD41461A00504601F0D2FD8046434618
:103090000C93002C00D050E2079C0A9A013C2300BC
:1030A0009446634408930123334007934B460693A9
:1030B0000C9B574645465E4692469846069B300016
:1030C00019009946FFF71CFB03000B9030332900D1
:1030D0003000049301F00CFE4946040042463800DB
:1030E00001F020FEC3688146002B00D01EE10100E4
:1030F000300001F0FDFD83464946380001F0ECFB4D
:103100005B46229A134303D1079B002B00D106E3B1
:10311000002C00DAA8E1229B1C4303D1079B002B63
:1031200000D1A1E15B46002B00DD82E269465246F8
:103130005346097C5C1C1170089A524500D18AE202
:10314000310000230A22380001F0D0FB00230600E2
:103150000A2229003800454500D1E1E001F0C6FB14
:103160004146050000230A22380001F0BFFBA246B9
:103170008046A3E71C20069B9C4684446346069336
:10318000089B9C46844463460893049B9C46844465
:103190006346049354E74946584601F0A9FD0028C8
:1031A00000DB63E7039B5946013B03930A2200239C
:1031B000504601F09BFB0B9B8346002B00D0CAE2DC
:1031C0000E9B002B00DCD8E207930A9B5D4600248F
:1031D000079F9B4606E0290000230A22504601F083
:1031E00085FB050049462800FFF78AFA5B46303028
:1031F00018550134BC42EEDBAB460600079C002CA0
:1032000000DC37E20A9B00279C46644459460122B1
:10321000504601F00DFD4946834601F069FD002846
:1032200000DC44E1651E2B780A9A06E0954200D145
:10323000B1E0023C23782C00013D392BF6D001335C
:103240002B704946504601F047FB4346002B00D106
:103250002FE5002F05D0474503D03900504601F037
:103260003BFB4146504601F037FB22E5130075E673
:10327000002E00D0ABE63B030024002B00D0BFE6BD
:10328000BA4B3B4200D1BBE6069B013401330693A7
:10329000049B01330493B3E601230B93239B002B80
:1032A00000DCD1E01D0098460E930793FFF7C8FBA2
:1032B000079B002B00DD53E500D0ADE00498059995
:1032C0000022AB4B03F094FC3B00320002F062FCA6
:1032D000002399469846002855D0239B0A9CDB433F
:1032E00003934946504601F0F7FA4346002B00D1BC
:1032F000DFE4B6E74A465946504601F039FC8346BA
:1033000053E60F9A002A00D1B6E19A4A4C469446F9
:10331000069A63440892D5E5002E00D070E6AAE72D
:1033200001F0E4FAA24605008046C7E601239B4669
:10333000E2E600230B93229B022BAFD000245346DE
:1033400021005C64504601F09FFA53461864012343
:103350005B4207930E9302330A9023940B93ECE4A1
:10336000229B022B00DC85E6079B002BB5D149464A
:103370000522504601F0BAFA81460100584601F094
:10338000B7FC0028A9DD31230A9A1370039B541C53
:1033900001330393A5E7039B0A9A01330393312377
:1033A00013704EE700230B93FFF73DFB069B5C4633
:1033B0009B46079B9A467CE4404604F003FA3200A1
:1033C0003B0003F015FC00226B4B02F0CDFC6B4A76
:1033D0000B00944663440890099109930022644BC2
:1033E0003000390003F084FE089E099F32003B0044
:1033F00004000D0002F0C4FB002800D0B2E08020E1
:1034000000068446390061440B0032002000290088
:1034100002F0A2FB002857D00023994698465CE7AB
:103420000A98FFF74CFAE21A0D9BA1469C46944479
:10343000634600240D933EE5109A119B0892099370
:1034400002239846FFF73AFB0023524600215364BB
:10345000504601F019FA5346186401230A90079365
:1034600023930E93FFF707FB43460C935B46069AA4
:10347000A846B3465546049E9146BA46002B10DD39
:1034800059460122380001F0D3FB4946834601F03A
:103490002FFC002800DC57E1392E00D122E10B9EE1
:1034A00031360C9B47466C1C2E709846C9E60028A6
:1034B00003D1F30701D5B5E61C00631E1A78302A44
:1034C000FAD0BEE6129B9946109E119F35E4012565
:1034D000FFF7B4FA039B002B00D1D4E010981199A8
:1034E0005C420F23264A2340DB00D3181A685B682E
:1034F00003F07EFB241106000F00002C00D149E1EF
:10350000022398461F4D0123234209D09C462A6876
:103510006B6830003900E04403F06AFB06000F00DE
:1035200064100835002CEED1FFF7E4FA039B302736
:103530000133039330232B70ACE45968504601F0FB
:10354000A3F94346414604001B690C319A1C9200C2
:103550000C3001F0F7F801222100504601F068FB21
:103560000C9099E50023994698460CE70000F07FFF
:10357000000014403304000000001C400000C0FCA8
:10358000487E0000207E0000129B8F49013BDB003B
:10359000C91808684968089A099B03F029FB149028
:1035A00015913900300004F0D9F8050004F00AF94B
:1035B00002000B003000390003F09AFD129B0890C6
:1035C00009910A991A008C46303562444C1C0D70E2
:1035D0009046012B1BD008980999250000227B4BAF
:1035E00003F006FB0F00060004F0B8F8040004F036
:1035F000E9F8303402000B003000390003F078FDA8
:103600002C700135A845E9D14446089009911498D9
:10361000159900226E4B02F0A7FB089A099B02F055
:103620009BFA002867D0139B651E03932F780A9B93
:103630002EE44346B3460C93049E069BA846994647
:103640005546BA46392E4DD00C9B013647466C1C68
:103650002E709846F5E54246069BB346BA46049E50
:1036600099462F009046D1E5069B079A9B1A08932E
:10367000002327E40124C5E53623169A4C469B1AFD
:10368000069A08921EE40223109E119F9846FFF7A7
:1036900031FA079B002B00D18EE60E9C002C00DC3B
:1036A00012E7039B0022013B13933000474B390084
:1036B00003F09EFA060040460F00013004F082F845
:1036C00032003B0003F094FA0022424B02F04CFB24
:1036D000414A0B009446634408900991129409935F
:1036E000FFF730FA39232B700C9B47466C1C984629
:1036F0000A9A3923A1E5149A159B0020344903F056
:10370000F7FC089A099B02F03BFA002801D1DBE69E
:103710001C00631E1A78302AFAD0FFF7C8FA434615
:10372000B3460C93049E069BA84699465546BA4656
:10373000392ED7D0002C00DDB1E6B2E6139A4D4603
:1037400003920A9BFFF7A4FB002800D0A9E6F30729
:1037500000D4A6E6A0E6002341460A22504601F026
:10376000C5F80E9B8046002B01DD079386E4229B63
:10377000022B1FDC0E9B079380E4229B022B19DC9B
:103780004946FEF7BDFF0A9B303018700E9B0600BD
:10379000079333E502239846FFF7ACF9139B149C7B
:1037A00003930A9B1D00FFF773FB139B149C039369
:1037B000FFF77FFA0E9B0793D6E5042B00D13FE479
:1037C0003C23181AD7E4C046487E0000000024407D
:1037D0000000E03F00001C400000C0FCF0B5C64601
:1037E00000B50C23CA5E804693B20C00190740D482
:1037F00080231B0113436268A381002A00DC70E070
:10380000A66A002E31D042464146156800229BB27E
:103810000A60DA0400D469E0226D5B0706D56368AC
:10382000D21A236B002B01D0E36BD21A0023E1697B
:103830004046B047431C3DD0A3893A4A134000227A
:10384000626022691BB2A3812260DB0447D4434635
:10385000216B1D60002908D023004033994202D01B
:10386000404600F067F900232363002004BC904623
:10387000F0BD2669002EF8D022682660951B002234
:103880009B0700D16269A260002D04DCEDE73618C9
:103890002D1A002DE9DD2B003200E1694046676AF0
:1038A000B8470028F3DC40220120A389404213439B
:1038B000A381DBE7434619681D29F4D81A4B01227E
:1038C000CB409A43EFD1A389164E62603340226900
:1038D0001BB2A3812260DB04B9D50029B7D12065D2
:1038E000B5E7E26B002A00DD8AE7BEE7002201238C
:1038F000E1694046B0470200431C02D0A389A66A92
:103900008BE743461B68002BF8D01D2B01D0162BEC
:1039100003D1434600201D60A8E74021A3890B4343
:10392000A381A3E7FFF7FFFF0100402070B505006A
:103930000C00002802D0836B002B16D00C22A35E53
:103940000026002B0FD0626ED20701D49B0513D541
:1039500021002800FFF742FF636E0600DB0702D458
:10396000A3899B0504D5300070BD00F039F8E5E768
:10397000A06D00F079FBF6E7A06D00F073FBE7E7C0
:1039800010B5024900F036FB10BDC0468555000059
:10399000002310B5040003604360836081814366A7
:1039A000C281036143618361082200215C30FDF71D
:1039B0000FF92000064BE4612362064B5830636226
:1039C000054BA362054BE36200F048FB10BDC04607
:1039D000B9520000E15200001D530000495300009D
:1039E00070B50400144D280000F03CFBA36B002BC5
:1039F0001DD1124A0421E263B8229200A350B923D8
:103A000003229B00E2500833E218043BE250606856
:103A10000022FFF7BDFF01220921A068FFF7B8FFD0
:103A200002221221E068FFF7B3FF0123A3632800FD
:103A300000F01AFB70BDC046280A00208139000042
:103A400010B5024800F00EFB10BDC0463C0A002035
:103A500010B5024800F008FB10BDC0463C0A00202B
:103A600070B5094B094CE41AA41009D0084AA518EE
:103A7000AD00ED182B68013C9847043D002CF9D1AE
:103A800003F05CFF70BDC046C0090020C4090020DF
:103A9000FFFFFF3FF8B50C00060000F0E5FE204FE9
:103AA000BB685D6803239D431E4B2C1B9C466444EE
:103AB000240B1D4B013C24039C4207DD00213000F8
:103AC00001F0E8FBBB685B19984204D0300000F0BD
:103AD000D3FE0020F8BD6142300001F0DBFB431C47
:103AE0000DD00122BB682D1B15435D600F4B3000CC
:103AF0001A68141B1C6000F0BFFE0120EAE70021D9
:103B0000300001F0C7FBBA68831A0F2BDEDD0849CD
:103B10000968401A0549086001210B435360D5E745
:103B20003C040020EF0F0000FF0F0000E40900201C
:103B300044080020F8B504000D1E3CD000F094FEAF
:103B40002900083948680123050003269D434A19C6
:103B50009C46614F5368B343BE68B24256D0664636
:103B6000536006420AD13E0008680836091A2D182B
:103B70008868B04265D0CE68C660B0600120D618B3
:103B80007668064233D0554B284348604D519D42DC
:103B900012D8ED08FF3BAA10FF3B93407A68ED0076
:103BA00013437B60EF19BB68CF608B60B960D9604D
:103BB000200000F061FEF8BD680A042850D8A8096A
:103BC000020039303832C0003818083883680326BC
:103BD00098424CD05A68B243954230D29B68984282
:103BE000F8D1C368CB6088609960C160E0E7ED18E8
:103BF0003B4E9368B34242D0D2682843DA60936068
:103C0000364B48604D519D42D6D8C2E76246EB180C
:103C1000024206D10A68891A88689B18CA68C2607D
:103C2000906001221A434A602E4AB960126893429A
:103C3000BED32D4B20001968FFF72CFFB8E7180002
:103C4000CFE76646D018406830423FD190685D1992
:103C5000D368C360986063462B434B604D51A7E720
:103C6000142814D802005C305B32C000ACE701239A
:103C7000921093407A6813437B600300B2E72843B5
:103C8000D9609960CB608B6048604D5190E75428B3
:103C900005D8280B02006F306E32C00094E7AA22CC
:103CA0005200904205D8E80B020078307732C0000D
:103CB0008AE70E4A904205D8A80C02007D307C327B
:103CC000C00081E7FE207E2280007DE763462B4313
:103CD0004B6015606CE7C0463C040020FF0100000B
:103CE0004404002048080020140A00205405000065
:103CF000F0B54E46DE4657464546E0B5936883B07C
:103D000000900C001600002B25D08B891A072AD5AD
:103D10000A69002A27D0326893469A072FD5B24BFA
:103D2000002700259846B146002D00D172E02B00F7
:103D3000454500D9AC4B3A00E1690098666AB04746
:103D4000002800DC73E04B469B683F182D1A181AB8
:103D50004B469860E8D1002003B03CBC90469946A1
:103D6000A246AB46F0BD21000098FEF7C3FB002839
:103D700000D030E13268A38993469A07CFD4DA079E
:103D80005DD5002300209A4600271D00B14629E09A
:103D9000002833D0A846BD4200D9B8462068226921
:103DA00046466369904207D9A26894469C4462469D
:103DB0000192E04500DDE9E0984500DA8FE0666AAF
:103DC0005246E1690098B047061E30DDAD1B012068
:103DD000002D26D04B469B68B244BF1B9E1B4B4612
:103DE0009E60B8D0002FD3D15B461B689A465B46D5
:103DF0005F6808239C46E344002FF5D03A000A216F
:103E0000504600F05FFC002800D1E2E0534601304C
:103E1000C51ABFE75B461F685D6808239C46E344FC
:103E200082E721000098FFF781FD0028D2D00C2204
:103E3000A35E402201201343A38140428CE700226D
:103E400091464D46002D23D0A268904680229200D4
:103E5000134226D0C24645454DD39022D20013428C
:103E60004ED12F0020685246494600F0ADFC424634
:103E7000A368981A2368A06053442360B368B944C8
:103E8000ED1BDF1BB76000D165E7A389002DDBD1F7
:103E90005A46126891465A46556808229446E344A9
:103EA000D0E720682369984202D86769BD4259D299
:103EB0004746AF4200D92F003A00494600F084FC43
:103EC000A3682268DB1BD219A3602260002BD5D126
:103ED00021000098FFF72AFD0028CFD0A7E742462F
:103EE000514600F071FC4246A3689B1AA360236808
:103EF000434423606AE7A84620682F00AA46B2E739
:103F000021692268521A924662695700BF18FA0F57
:103F1000D7195246501C7F1040193A00B84201D9B7
:103F2000070002005B0542D51100009800F016F969
:103F30008046031E52D05246216900F003FCA3893B
:103F40002A4A134080221343A381434640462361FB
:103F5000534650446761FF1AA7602060A8462F00AF
:103F6000AA4680E7224B28009D4200D9180039005C
:103F700001F0F2FC3B004A464343E1690098676A5E
:103F8000B847002800DC52E7070077E7664651464D
:103F900000F01AFCB44623682100634423600098B3
:103FA000FFF7C4FC002800D041E7019E0EE700980F
:103FB00000F0B2FF80460028C7D1009D216928008B
:103FC000FFF7B8FD8022A3899343743A1BB22A609D
:103FD0002FE77D1CDEE601204042BDE6009A0C334F
:103FE00013600C22A35E24E700FCFF7F7FFBFFFF32
:103FF000FFFFFF7FF8B54746CE4680B5B82780461D
:10400000BF00474489460026002F14D07B68BC6857
:104010005D1E0DD4A389012B07D90E22A35E0133A7
:1040200003D021004046C84706436834013DF1D221
:104030003F68002FEAD130000CBC90469946F8BD8D
:10404000044B1B68586B002801D0F03070470248C1
:10405000FBE7C0460C0000204C0800207047C0461B
:104060007047C0467047C0467047C04670B50C00E8
:104070001E000E23C95E90B01500002915DB01AAB1
:1040800001F060FB002810DBF022029B12021340BB
:104090000D4A8020944663445A4253413360802342
:1040A000DB002B60000110B070BD00233360A389DA
:1040B0001B0603D5402300202B60F4E78023DB00A0
:1040C0002B600020EFE7C04600E0FFFF70B58B8952
:1040D00082B006000C009B0707D523004333236002
:1040E00023610123636102B070BD01AB6A46FFF733
:1040F000BDFF00990500300000F030F800281ED008
:104100008022154BF363A38920601343009A1BB2EE
:104110006261019AA3812061002A02D12B43A3810D
:10412000E1E70E23E15E300001F020FB002810D013
:104130000322A3899343012213431BB2EEE70C220F
:10414000A35E9A05CFD40322934302221343A38193
:10415000C3E70C22A35EE1E781390000F0B55746C2
:104160004546DE464E46E0B50D000B3583B00700F0
:10417000162D00D89FE007239D4300D5C4E0A94237
:1041800000D9C1E000F070FBF823FF339D4200D856
:104190008FE2680A00D1BBE0042800D962E138232D
:1041A0009846A80980443930C100D24E71180839A8
:1041B000CC68A14219D0032362689A431300521BB2
:1041C0000F2A00DDAAE0002A00DB88E003239C46DA
:1041D00008E06246636893435A1B0F2A00DD9DE0A6
:1041E000002A7CDAE468A142F3D132003469083253
:1041F000944200D190E10323616899438946491BA9
:104200000F2900DD62E172613261002900DB87E085
:10421000B94A4B46914500D930E1DB08FF3A991085
:10422000FF3A8A40DB0071689B190A439968726003
:10423000E360A1609C601300CC600121821091407A
:1042400099426FD80B4205D10322904349000430B4
:104250000B42FBD003239846C3009946B144CC4699
:1042600082466346DC68A44507D157E1002A00DB9B
:1042700066E1E468A44500D150E142466368934397
:104280005A1B0F2AF2DD0120804661190543656043
:10429000A068E5680836C560A8604046F160B16076
:1042A00010434860CE608E603800E25000F0E4FABF
:1042B0002000083021E0102926D8380000F0D4FA78
:1042C0001025182302208B4EF3181A005C68083A58
:1042D000944200D12EE1032362689A431300E268FE
:1042E000A168CA6091600122E318596838000A4346
:1042F0005A6000F0C1FA2000083003B03CBC904680
:104300009946A246AB46F0BD0C2300203B60F4E783
:1043100080213F2340208900984646E7404664E7D5
:104320004B46E0E70323B46862689A439046AA428A
:1043300003D3531B0F2B00DD86E0230043446F4A59
:1043400001936F4B93461B681268EB18013200D142
:1043500068E16C4A944663441B0B1B03009300996D
:10436000380000F097FF03008146013361D0019BC4
:10437000834200D9FFE0644B009A9A461B689C4632
:10438000534662441A60019B1100834200D155E1FB
:104390005B461B68013300D16CE14B46019A9B1AC6
:1043A00059185346196007234A46134000D124E1A7
:1043B000082189465549D21A9144CB1A009A3800EF
:1043C0004A441105090D5B1A19009B4600F062FF73
:1043D000431C00D142E14B46C01A01235844184304
:1043E00053461B685B441900534619604B46B36043
:1043F0005860B44213D043460F2B00D8E8E0434640
:10440000072260680C3B9343063A024005201A439A
:104410006260E218506090600F2B00D922E13C4BA3
:104420001A68914200D919603A4B1A68914200D932
:1044300019600323B46862689A43531B954200D9FC
:10444000C9E00F2B00DCC6E0012229001343114311
:10445000651961603800B5606B6000F00DFA2000EE
:1044600008304AE714287AD9542800D9BAE06E23D4
:104470009846280B80446F30C10096E65A0A042AF9
:1044800073D9142A00D9D0E011005C325B31D2001C
:1044900008235B429C46B218944463469A680323FF
:1044A0009846944500D1ABE043465168994389450D
:1044B00000D395E092689445F6D16346DA68736854
:1044C0006146E260A1609460CC60B6E601236019A9
:1044D0001D43656070613061C26082601A004B46A6
:1044E0000A4342603800E15000F0C6F9200008306D
:1044F00003E7C0463C040020FF0100004408002000
:10450000140A00200F100000E40900200810000029
:104510000C0A0020100A002073688EE608239B46D0
:10452000073BDC449B46DA4443465246134200D0E4
:1045300097E637E0DC680230A34200D155E6CAE6D0
:104540000122E318596838000A435A60E368A268F8
:10455000D3609A6000F090F920000830CDE65B232C
:10456000984680445C30C1001FE69A091100393238
:104570003831D2008CE7B44200D05AE74F4B009A52
:104580009A461B689C465346624411001A60FFE637
:1045900008235B429C46E1444B469B6801389945A1
:1045A00000D084E043460342F2D173688B437360CA
:1045B0004900994200D9B5E6002900D1B2E650463B
:1045C0000B4200D048E6490004300B42FBD043E6E2
:1045D00001234A465360380000F04EF900208CE673
:1045E00094466AE7AA235B00984211D8DD3B9846BF
:1045F000E80B80447830C100D7E580235B01DDE61D
:104600008910023B8B40726813437360624657E720
:104610002B4B98421CD87C239846A80C80447D30B4
:10462000C100C2E51033009399E6542A26D84B46C0
:104630001A0B11006F326E31D20029E71B0500D032
:10464000A6E60120009BB268434403435360E6E6BC
:10465000FE217E237F2089009846A6E500230120C5
:104660009B46BDE6210038000831FFF763FA534648
:104670001968D4E65B464A461A6094E6AA214900C6
:104680008A4206D84B46DA0B110078327731D200D5
:10469000FEE60B498A4206D84B469A0C11007D3241
:1046A0007C31D200F4E6FE227E219200F0E67368AF
:1046B0007EE72B00E808083305E6C046E409002041
:1046C0005405000070B5CDB2830734D0541E002AC3
:1046D0001BD00378AB4219D0032204E0013C14D371
:1046E0000378AB4212D001301042F7D1032C0ED820
:1046F000002C0AD00378AB4208D0041902E00378FA
:10470000AB4203D001308442F9D1002070BDFF22BA
:104710000B061B0C114019430B04084E1943036888
:10472000074A4B409A189A433242E3D1043C043082
:10473000032CF4D8DCE71400D8E7C04680808080E2
:10474000FFFEFEFEF0B505000F2A2FD90B00034334
:104750009B0734D116000C000300103E35090135CB
:104760002D01451927681F6067685F60A7689F6013
:10477000E7681034DF6010339D42F3D10F239E436E
:104780001036851989191340032B1AD91E1F0023CF
:10479000B4080134A400CF58EF500433A342FAD137
:1047A0000324A643331D2240C918ED18002A05D062
:1047B0000023CC5CEC5401339342FAD1F0BD0500E8
:1047C000F6E71A00F2E7C046F0B588420AD98B181E
:1047D000984207D2531E002A03D0CA5CC254013B40
:1047E000FBD2F0BD05000F2A08D8002AF9D000231B
:1047F000CC5CEC5401339342FAD1F2E70B00034353
:104800009B072DD115000C000300103D2F09013727
:104810003F01C71926681E6066685E60A6689E60D4
:10482000E6681034DE6010339F42F3D10F24A543B5
:104830001035491914404519032C13D90023271F9B
:10484000BE080136B600CC58EC500433B342FAD15E
:104850000326B7433C1D09192D193240C7D1C0E7C3
:104860000500C4E72200C0E710B50248FFF7FAFBD5
:1048700010BDC0462C0A002010B50248FFF7F4FB1B
:1048800010BDC0462C0A002070B50400C06C0D009D
:1048900000280AD0AB00C318186800280FD002689F
:1048A0001A6000230361C36070BD2122042120002F
:1048B00000F02AFEE0640028ECD10020F4E7012695
:1048C000AE40721D92000121200000F01DFE002864
:1048D000F3D045608660E4E7002906D04B689A0073
:1048E000C36C9B181A680A6019607047F8B5CE4609
:1048F00047468146080080B50D000C691F00002165
:104900001430036801311E04360C56431B0C53430C
:10491000F619370CDB1936041F0C360C1B049B19D7
:1049200008C08C42EDDC002F08D0AB689C420ADA4C
:10493000231D9B00EB1801345F602C6128000CBC28
:1049400090469946F8BD6B684846591CFFF79CFF96
:1049500029002B6980469A1C92000C310C30FFF71D
:10496000F1FE6B689A004B46DB6C9B181A682A6054
:104970001D604546DCE7C0460300020C0020002A0B
:1049800001D11B0410301A0E01D108301B021A0F7E
:1049900001D104301B019A0F01D102309B00002B82
:1049A00003DB01305B0000D42020704703685A0706
:1049B00009D00022D90704D49A0720D402229B08E8
:1049C00003601000704719040022002901D11B0C5C
:1049D0001032FF21194201D108321B0A190701D1F7
:1049E00004321B09990701D102329B08D90704D46C
:1049F0005B0801D12022E4E701320360E1E75B08B4
:104A000003600122DDE7C04610B50C000121FFF76D
:104A10003BFF01234461036110BDC046F0B557461A
:104A20004E464546DE46E0B514690E6985B00F0076
:104A30001500A64204DA3300170026000D001C0002
:104A400033199846BB687968984500DD0131FFF756
:104A50001BFF14220300944663449B4643469B007D
:104A60005B441900029303905B4600228B4503D2FE
:104A7000029904C39942FCD81423A4009A4614371F
:104A80002300BC46AA44B60053440097B4440193A3
:104A90009A454FD253461B681E04360C20D05C4604
:104AA0000027009D210008CC04CD994648461304F8
:104AB0001B0C73430004000C1B18D819130C4A4636
:104AC0007343120C9B18020C9B1802041F0C120C4F
:104AD0001B0413430B60AC45E4D8534627601B68A6
:104AE0001E0C20D05B4600211B685C4618000F009E
:104AF0006246009D2988000C71430918C9191B04DE
:104B000008041B0C0343236008CD60681B0C73432F
:104B100007043F0CDB19090C5B181F0C0434AA4274
:104B2000E8D89446236004239946019BCA44CB44A9
:104B30005345AFD84346002B0EDD029B043B1A6859
:104B4000002A09D1424603E0043B1968002902D13A
:104B5000013A002AF8D19046039B424618001A6198
:104B600005B03CBC90469946A246AB46F0BDC04657
:104B7000F8B54746CE46032380B580460F001400A3
:104B800013403AD1A4103E00002C25D043469D6C22
:104B9000002D3BD03E00002301279946274207D134
:104BA000641019D0286800281BD005002742F7D0D0
:104BB0002A0031004046FFF731FF002E1BD042464D
:104BC000D26C736894469B0063441A686410326028
:104BD0001E600600002CE5D130000CBC90469946C2
:104BE000F8BD2A0029004046FFF718FF4B46286011
:104BF00003600500DAE70600D2E70B4A013B9B00A1
:104C00009A580023FFF772FE0700BBE701214046D8
:104C1000FFF73AFE054B050043610123036143465C
:104C2000986400230360B5E7107F00007102000064
:104C3000F8B54E464546DE465746E0B50E003369A8
:104C400054119846A04443465D1CB3688346914680
:104C500049689D4203DD01315B009D42FBDC584603
:104C6000FFF712FE030084461433002C06DD0021FA
:104C7000A4001A001B1902C29342FCD132694846B3
:104C8000970031001F2214311040CF1981460028AF
:104C900025D02022121A9246002248460C688440F1
:104CA000504614431C6004C90433C2408F42F4D8F8
:104CB0001A60002A01D0454602356346013D1D6158
:104CC000736860469A005B46DB6C9B181A6832601A
:104CD0001E603CBC90469946A246AB46F8BD04C94E
:104CE00004C38F42E9D904C904C38F42F7D8E4E76B
:104CF0000A69036930B50500981A11D1920014357C
:104D00001431AB18891801E09D4209D2043B0439E3
:104D10001C680A689442F7D09442804101221043F3
:104D200030BDC046F8B54546DE4657464E461400EF
:104D30000B691269E0B588469D1A1AD10F0014213B
:104D40008C4692001437A444BB18624402E09F4290
:104D500000D370E0043B043A1E6811688E42F6D01E
:104D600000D371E043463E00A04667461C00012583
:104D700006E0002D6ADB474626000025143714366E
:104D800043465968FFF780FD43468146C560186970
:104D90004D4683009C462369BC449B0098460023F3
:104DA000B04414359A4600E0270004CE3C009346F8
:104DB000594608CC09041A04120C5244090C521A20
:104DC000190C5B461B0CCB1A11145B181204191436
:104DD000120C1B048A461343291D2B600D00B0459D
:104DE000E2D8A44516D908CC1A04120C5244161461
:104DF0001B0C9B1912041E14120C1B041343B24605
:104E000008C5A445EFD862460324D21B053AA24345
:104E1000043289180439002B04D104390B68013895
:104E2000002BFAD04B46186148463CBC9046994648
:104E3000A246AB46F8BD0021FFF726FD0123036122
:104E4000002381464361EFE7664699E727000E009D
:104E5000A046143714360C00012591E7F0B5012166
:104E60001C0083B0089E1500FFF70EFD23036400AD
:104E700007001B0B640D02D08022520313430193E1
:104E8000002D19D068460095FFF790FD002830D11D
:104E9000009B7B61019BBB615A1E93415D1C3D6180
:104EA000002C14D0194B9C46352364442418181A3E
:104EB000099B3460186019E001A8FFF777FD019B9A
:104EC00020307B61012301253B61002CEAD1104B8E
:104ED0009C46104B6044EB189B00FB1830605869EF
:104EE000FFF74AFD6B01181A099B1860380003B0E0
:104EF000F0BD019B20221900121A91400A00C34004
:104F0000009901930A437A61C5E7C046CDFBFFFFD4
:104F1000CEFBFFFFFFFFFF3FF0B54E464546DE46A6
:104F20005746E0B585B001900E001500002900D16C
:104F30009EE037000198083FFFF796FC7A6803234C
:104F400014009C432B000B33B946162B47D8102175
:104F500010238846454546D89C4249DACC49381941
:104F60008B4689680290884200D1C2E001218A46BE
:104F7000406801000390504681438C4602998B465D
:104F8000DC446146496801424DD0104200D1A2E0A4
:104F900029000198FFF7E2F8051E39D0012302002D
:104FA0007968083A99437F18BA4200D12EE1221F4E
:104FB000242A00D914E1132A00D9E8E003003200C2
:104FC000116819605168596092689A60019C3100BB
:104FD0002000FEF7AFFD2000FFF74EFC1BE007218D
:104FE0008B439846B6D50C23019A0025136012E036
:104FF00035004346E31A0F2B25D84B46012249467C
:105000005B68134023434B604C4463681A436260FF
:105010000198FFF731FC280005B03CBC904699464A
:10502000A246AB46F0BD032103988C468843211865
:105030008B46994221DB029A3500D36892685C4620
:10504000D3609A60D5E74A460120464652684946F1
:10505000024032434E464144034372604C444B602D
:1050600063680831184360600198FEF763FDCFE77D
:105070001100FFF773F80500CDE75146114200D04B
:1050800086E761463A68BA1A924652688A4380189F
:105090008346A3449B4526DB029AD3689268D3607B
:1050A0009A605346524655469268DB680835D3608D
:1050B0009A60221F242A00D996E0132A72D95346F7
:1050C000316899607168D9601B2A00D9A4E0320068
:1050D0001033083268E03A68BA1A92465146032201
:1050E000496891430A009346A3449B4500DA4FE781
:1050F000D7E703200299844649688143404609194D
:1051000010300290814258DAD20700D540E760465D
:105110003A68BA1A9246526882430298511803912B
:105120008842E0DC5346524655469268DB680835B3
:10513000D3609A60221F242A00D98EE0132A00D857
:1051400088E05346316899607168D9601B2A00D99C
:1051500088E03200103308321168196051685960D4
:1051600092689A6051465B46424641449960039B6F
:1051700001989A1A01231A434A6052465268134012
:105180004246134352465360FFF776FB43E73368CA
:105190000360736843601B2A2DD803003200083374
:1051A00008320DE72B00320011685C461960516827
:1051B000D146596092689A601BE74346FA185B46ED
:1051C0009A604346C91A0123194351607A680198CD
:1051D0001340424613437B60FFF74EFB35001AE74E
:1051E0003100FFF7F1FAF1E631002800FFF7ECFAA1
:1051F0005C46D146FDE6B3688360F368C360242A49
:1052000015D00300320010331032D9E65368032260
:105210009343E4183500ECE65346B1681961F16830
:105220005961242A0CD0320018331032BCE733699C
:105230003200036103007169183318324161BFE61F
:105240005346326951469A613200706920331832F0
:10525000C861A9E72B0032007EE731002800FFF784
:10526000B3FA7FE75346B1681961F1685961242A9E
:1052700003D03200183310326EE75346326951467C
:105280009A613200706920331832C86164E7C04601
:105290003C040020002370B5064C05000800236084
:1052A00002F036FB431C00D070BD2368002BFBD0FE
:1052B0002B60F9E7400A002070B50C000E25495F0D
:1052C00000F0A0FA002803DB236D1B18236570BDD6
:1052D000A389024A1340A381F9E7C046FFEFFFFF0D
:1052E000F8B516001F000C228B5E05000C00DA05D5
:1052F00007D50E23C95E0022022300F059FA0C22C2
:10530000A35E054A28001340A38132000E23E15E0C
:105310003B0000F06BF8F8BDFFEFFFFF70B50C002D
:105320000E25495F00F044FA431C06D08023A28971
:105330005B011343A381206570BDA389014A13401B
:10534000A381F9E7FFEFFFFF10B50E23C95E00F060
:1053500007F910BDF8B54E464546DE4657464B6E3A
:10536000E0B580460E0091469B0431D513689A46FD
:105370009368002B2AD0524652680025934697081E
:105380005246146804D116E001350434AF4210D0FF
:1053900032002168404600F0A7F9431CF4D14A4688
:1053A0000023936053603CBC90469946A246AB46AE
:1053B000F8BD4B469B685A4603218A439B1A4A46CE
:1053C000936008229446E244002BD4D10020E6E703
:1053D000FEF78EFCE3E7C046936810B5002B02D0C1
:1053E000FFF7B8FF10BD53600020FBE770B5050064
:1053F000080011000022064C22601A00FBF7EEF9AB
:10540000431C00D070BD2368002BFBD02B60F9E754
:10541000400A0020F0B54E464546DE465746E0B508
:10542000364D83B00600286898460F009146FEF777
:1054300019FE334B1C68A4235B00E058002852D0AF
:1054400043681F2B13DC5A1C0192002E28D1019AAD
:1054500002339B0042601F502868FEF705FE0020C3
:1054600003B03CBC90469946A246AB46F0BD254BE6
:10547000002B3DD0C820400000E000BF002837D0FE
:10548000A42200235200A15843600160A050403282
:10549000835004328350013301930023002ED6D071
:1054A0009A00924682444A46882154466250C42259
:1054B0005200914681444A468739994012688B468A
:1054C0000A4394464A46614611608422414652008E
:1054D000A150022EBBD102005C468D32FF32116812
:1054E0000C431460B3E720004D30FF30E050A7E7D5
:1054F0002868FEF7B9FD01204042B1E738040020DA
:105500003C7C00000000000010B55143FEF726FE71
:10551000041E1CD00300083B5A6803239A43043A34
:10552000242A16D80300132A0DD90021083301605C
:1055300041601B2A07D98160C160242A0DD1030074
:1055400001611833416100221A605A609A6020009C
:1055500010BD0021FBF73CFBF9E703001033F2E735
:10556000002370B5064C05000800236002F0B0F976
:10557000431C00D070BD2368002BFBD02B60F9E7E3
:10558000400A002070B505000C1E40D0002802D053
:10559000836B002B3ED00126636E334233D1A38947
:1055A0009B0543D521002800FEF718F9E36A0600A1
:1055B000002B04D0E16928009847002844DBA38928
:1055C0001B062AD4216B002908D0230040339942BE
:1055D00002D02800FEF7AEFA00232363616C002995
:1055E00004D02800FEF7A6FA00236364FEF728FA29
:1055F0000023A381636EDB0714D5A06DFEF730FD99
:10560000FEF726FA04E00C22A35E002BCAD1002686
:10561000300070BDFEF7E4F9BDE721692800FEF710
:1056200089FACFE7A06DFEF71FFDE6E7A06DFEF754
:1056300019FD0C22A35E002BB4D1636E1E40E6D18F
:10564000A06DFEF711FDE3E701267642B7E7C046FD
:10565000F0B5CE46474680B585B0804689461400F1
:1056600000F096F8012831D0230003AF5C334A469E
:105670003900404600F038F90600431C21D00028CC
:1056800030D03978002507E023685A1C2260197051
:105690000135B54226D2795DA368013BA360002B9A
:1056A000F2DAA269934201DB0A29EDD122004046D9
:1056B00000F0BCF8431CEBD105B00CBC90469946F9
:1056C000F0BD4022A3891343A381F5E74B46013B7C
:1056D000FE2BC9D86A464B46D371D17903AF3970D6
:1056E0000126CFE74846E7E7536E70B505000E0088
:1056F0001400DB071ED40C23D25E91B28B0516D5A5
:1057000080239B01194204D11A43A281626E134384
:105710006366280022003100FFF79AFF636E0500E0
:10572000DB0702D4A3899B0508D5280070BDA06DB6
:10573000FEF798FC0C23E25E91B2E1E7A06DFEF764
:1057400093FCF2E7002370B5074C05000800110038
:10575000236002F0C5F8431C00D070BD2368002B05
:10576000FBD02B60F9E7C046400A0020002370B54B
:10577000064C05000800236002F0BAF8431C00D074
:1057800070BD2368002BFBD02B60F9E7400A002096
:10579000054B1B685B6B002B03D094225200985C76
:1057A0007047024BF9E7C0460C0000204C0800206F
:1057B00070B50500080011000022064C22601A0096
:1057C00002F09EF8431C00D070BD2368002BFBD074
:1057D0002B60F9E7400A002082B000290AD0002A95
:1057E0000BD0002B0BD013780B601078431E984120
:1057F00002B0704701A9002AF3D10020F8E7022087
:105800004042F5E770B50500080011000022064C83
:1058100022601A00FAF7FEFF431C00D070BD236817
:10582000002BFBD02B60F9E7400A0020F8B50600FA
:105830000D001400002802D0836B002B4ED0A3690A
:10584000A3600C23E05E81B20B073CD52369002BDB
:1058500039D0FF22EFB2154080229201114215D0BB
:1058600022686169D31A8B421BDA0133A1680139BE
:10587000A160511C2160177062699A421AD0A389F5
:10588000DB0701D50A2D15D02800F8BD0243616E53
:10589000A281144A0A40626661692268D31A8B4267
:1058A000E3DB21003000FEF741F8002808D1226830
:1058B0000123DBE721003000FEF738F80028E3D0B1
:1058C00001256D42E0E721003000FCF713FE0028BF
:1058D000F6D10C23E05E236981B2BAE7FEF780F8C7
:1058E000ADE7C046FFDFFFFF70B51D00114B84B070
:1058F0001B6804005B6B00290ED0002B16D0E02043
:105900001E582B002000B047431C03D100232B60FE
:105910008A33236004B070BD002B09D0E02201A9B6
:105920009E5820002B000022B047EDE7024BE6E72F
:10593000014BF3E70C0000204C080020002904D0A4
:10594000FF2A04D801200A7070470020FCE78A2350
:10595000036001204042F7E703460B437FD4002257
:1059600043088B4274D303098B425FD3030A8B42F3
:1059700044D3030B8B4228D3030C8B420DD3FF225D
:10598000090212BA030C8B4202D31212090265D02B
:10599000030B8B4219D300E0090AC30B8B4201D3DE
:1059A000CB03C01A5241830B8B4201D38B03C01A25
:1059B0005241430B8B4201D34B03C01A5241030B9C
:1059C0008B4201D30B03C01A5241C30A8B4201D34D
:1059D000CB02C01A5241830A8B4201D38B02C01AF8
:1059E0005241430A8B4201D34B02C01A5241030A6F
:1059F0008B4201D30B02C01A5241CDD2C3098B4254
:105A000001D3CB01C01A524183098B4201D38B01D0
:105A1000C01A524143098B4201D34B01C01A524173
:105A200003098B4201D30B01C01A5241C3088B42B8
:105A300001D3CB00C01A524183088B4201D38B00A3
:105A4000C01A524143088B4201D34B00C01A524145
:105A5000411A00D201465241104670475DE0CA0F1C
:105A600000D04942031000D34042534000229C46DC
:105A700003098B422DD3030A8B4212D3FC228901E6
:105A800012BA030A8B420CD3890192118B4208D3BC
:105A9000890192118B4204D389013AD0921100E01E
:105AA0008909C3098B4201D3CB01C01A5241830932
:105AB0008B4201D38B01C01A524143098B4201D35F
:105AC0004B01C01A524103098B4201D30B01C01A8A
:105AD0005241C3088B4201D3CB00C01A5241830804
